{
  "_format": "hh-sol-artifact-1",
  "contractName": "Marketplace",
  "sourceName": "src/backend/contracts/Marketplace.sol",
  "abi": [
    {
      "anonymous": false,
      "inputs": [
        {
          "indexed": false,
          "internalType": "uint256",
          "name": "itemId",
          "type": "uint256"
        },
        {
          "indexed": true,
          "internalType": "address",
          "name": "nft",
          "type": "address"
        },
        {
          "indexed": false,
          "internalType": "uint256",
          "name": "tokenId",
          "type": "uint256"
        },
        {
          "indexed": false,
          "internalType": "uint256",
          "name": "price",
          "type": "uint256"
        },
        {
          "indexed": true,
          "internalType": "address",
          "name": "seller",
          "type": "address"
        },
        {
          "indexed": true,
          "internalType": "address",
          "name": "buyer",
          "type": "address"
        }
      ],
      "name": "Bought",
      "type": "event"
    },
    {
      "inputs": [
        {
          "internalType": "uint256",
          "name": "_itemId",
          "type": "uint256"
        }
      ],
      "name": "getTotalPrice",
      "outputs": [
        {
          "internalType": "uint256",
          "name": "",
          "type": "uint256"
        }
      ],
      "stateMutability": "view",
      "type": "function"
    },
    {
      "inputs": [],
      "name": "itemCount",
      "outputs": [
        {
          "internalType": "uint256",
          "name": "",
          "type": "uint256"
        }
      ],
      "stateMutability": "view",
      "type": "function"
    },
    {
      "inputs": [
        {
          "internalType": "uint256",
          "name": "",
          "type": "uint256"
        }
      ],
      "name": "items",
      "outputs": [
        {
          "internalType": "uint256",
          "name": "itemId",
          "type": "uint256"
        },
        {
          "internalType": "contract IERC721",
          "name": "nft",
          "type": "address"
        },
        {
          "internalType": "uint256",
          "name": "tokenId",
          "type": "uint256"
        },
        {
          "internalType": "uint256",
          "name": "price",
          "type": "uint256"
        },
        {
          "internalType": "address payable",
          "name": "seller",
          "type": "address"
        },
        {
          "internalType": "bool",
          "name": "sold",
          "type": "bool"
        }
      ],
      "stateMutability": "view",
      "type": "function"
    },
    {
      "inputs": [
        {
          "internalType": "contract IERC721",
          "name": "_nft",
          "type": "address"
        },
        {
          "internalType": "uint256",
          "name": "_tokenId",
          "type": "uint256"
        },
        {
          "internalType": "uint256",
          "name": "_price",
          "type": "uint256"
        }
      ],
      "name": "makeItem",
      "outputs": [],
      "stateMutability": "nonpayable",
      "type": "function"
    },
    {
      "inputs": [
        {
          "internalType": "uint256",
          "name": "_itemId",
          "type": "uint256"
        },
        {
          "internalType": "contract IERC20",
          "name": "paytoken",
          "type": "address"
        }
      ],
      "name": "purchaseItem",
      "outputs": [],
      "stateMutability": "payable",
      "type": "function"
    }
  ],
  "bytecode": "0x608060405234801561001057600080fd5b50610b5f806100206000396000f3fe60806040526004361061004a5760003560e01c80636bfb0d011461004f5780637bfe9efd1461007a578063bfb231d214610096578063ca7dd375146100d8578063fa00afc714610115575b600080fd5b34801561005b57600080fd5b5061006461013e565b6040516100719190610890565b60405180910390f35b610094600480360381019061008f9190610749565b610144565b005b3480156100a257600080fd5b506100bd60048036038101906100b89190610720565b61039c565b6040516100cf969594939291906108ab565b60405180910390f35b3480156100e457600080fd5b506100ff60048036038101906100fa9190610720565b610425565b60405161010c9190610890565b60405180910390f35b34801561012157600080fd5b5061013c600480360381019061013791906106d1565b610445565b005b60005481565b60006001600084815260200190815260200160002090508173ffffffffffffffffffffffffffffffffffffffff166323b872dd338360040160009054906101000a900473ffffffffffffffffffffffffffffffffffffffff1684600301546040518463ffffffff1660e01b81526004016101c093929190610802565b602060405180830381600087803b1580156101da57600080fd5b505af11580156101ee573d6000803e3d6000fd5b505050506040513d601f19601f8201168201806040525081019061021291906106a8565b5060018160040160146101000a81548160ff0219169083151502179055508060010160009054906101000a900473ffffffffffffffffffffffffffffffffffffffff1673ffffffffffffffffffffffffffffffffffffffff166323b872dd303384600201546040518463ffffffff1660e01b815260040161029593929190610839565b600060405180830381600087803b1580156102af57600080fd5b505af11580156102c3573d6000803e3d6000fd5b505050503373ffffffffffffffffffffffffffffffffffffffff168160040160009054906101000a900473ffffffffffffffffffffffffffffffffffffffff1673ffffffffffffffffffffffffffffffffffffffff168260010160009054906101000a900473ffffffffffffffffffffffffffffffffffffffff1673ffffffffffffffffffffffffffffffffffffffff167f8b4c9c8a607d67b321582dd8461041b1dc2ceeca70c8b7f37f8e02095cf2e76d868560020154866003015460405161038f9392919061090c565b60405180910390a4505050565b60016020528060005260406000206000915090508060000154908060010160009054906101000a900473ffffffffffffffffffffffffffffffffffffffff16908060020154908060030154908060040160009054906101000a900473ffffffffffffffffffffffffffffffffffffffff16908060040160149054906101000a900460ff16905086565b600060016000838152602001908152602001600020600301549050919050565b60008111610488576040517f08c379a000000000000000000000000000000000000000000000000000000000815260040161047f90610870565b60405180910390fd5b60008081548092919061049a90610a2c565b91905055508273ffffffffffffffffffffffffffffffffffffffff166323b872dd3330856040518463ffffffff1660e01b81526004016104dc93929190610839565b600060405180830381600087803b1580156104f657600080fd5b505af115801561050a573d6000803e3d6000fd5b505050506040518060c0016040528060005481526020018473ffffffffffffffffffffffffffffffffffffffff1681526020018381526020018281526020013373ffffffffffffffffffffffffffffffffffffffff1681526020016000151581525060016000805481526020019081526020016000206000820151816000015560208201518160010160006101000a81548173ffffffffffffffffffffffffffffffffffffffff021916908373ffffffffffffffffffffffffffffffffffffffff160217905550604082015181600201556060820151816003015560808201518160040160006101000a81548173ffffffffffffffffffffffffffffffffffffffff021916908373ffffffffffffffffffffffffffffffffffffffff16021790555060a08201518160040160146101000a81548160ff021916908315150217905550905050505050565b60008151905061066381610acd565b92915050565b60008135905061067881610ae4565b92915050565b60008135905061068d81610afb565b92915050565b6000813590506106a281610b12565b92915050565b6000602082840312156106ba57600080fd5b60006106c884828501610654565b91505092915050565b6000806000606084860312156106e657600080fd5b60006106f48682870161067e565b935050602061070586828701610693565b925050604061071686828701610693565b9150509250925092565b60006020828403121561073257600080fd5b600061074084828501610693565b91505092915050565b6000806040838503121561075c57600080fd5b600061076a85828601610693565b925050602061077b85828601610669565b9150509250929050565b61078e816109d2565b82525050565b61079d81610966565b82525050565b6107ac81610954565b82525050565b6107bb81610978565b82525050565b6107ca816109e4565b82525050565b60006107dd601f83610943565b91506107e882610aa4565b602082019050919050565b6107fc816109c8565b82525050565b600060608201905061081760008301866107a3565b6108246020830185610785565b61083160408301846107f3565b949350505050565b600060608201905061084e60008301866107a3565b61085b60208301856107a3565b61086860408301846107f3565b949350505050565b60006020820190508181036000830152610889816107d0565b9050919050565b60006020820190506108a560008301846107f3565b92915050565b600060c0820190506108c060008301896107f3565b6108cd60208301886107c1565b6108da60408301876107f3565b6108e760608301866107f3565b6108f46080830185610794565b61090160a08301846107b2565b979650505050505050565b600060608201905061092160008301866107f3565b61092e60208301856107f3565b61093b60408301846107f3565b949350505050565b600082825260208201905092915050565b600061095f826109a8565b9050919050565b6000610971826109a8565b9050919050565b60008115159050919050565b600061098f82610954565b9050919050565b60006109a182610954565b9050919050565b600073ffffffffffffffffffffffffffffffffffffffff82169050919050565b6000819050919050565b60006109dd82610a08565b9050919050565b60006109ef826109f6565b9050919050565b6000610a01826109a8565b9050919050565b6000610a1382610a1a565b9050919050565b6000610a25826109a8565b9050919050565b6000610a37826109c8565b91507fffffffffffffffffffffffffffffffffffffffffffffffffffffffffffffffff821415610a6a57610a69610a75565b5b600182019050919050565b7f4e487b7100000000000000000000000000000000000000000000000000000000600052601160045260246000fd5b7f5072696365206d7573742062652067726561746572207468616e207a65726f00600082015250565b610ad681610978565b8114610ae157600080fd5b50565b610aed81610984565b8114610af857600080fd5b50565b610b0481610996565b8114610b0f57600080fd5b50565b610b1b816109c8565b8114610b2657600080fd5b5056fea26469706673582212208da4df44e30090a1648f3f9e23c4dc80be4a0427f0c758c62f8eabc25ac8f41264736f6c63430008040033",
  "linkReferences": {},
  "deployedLinkReferences": {}
}